:0A000000020BEE02100375ED1C2246
:07000B0002100B75ED1D2230
:0700130002101375ED1E221F
:07001B0002101B75ED1F220E
:0700230002102375ED2022FD
:07002B0002102B75ED2D22E0
:0700330002103375ED2E22CF
:07003B0002103B75ED2F22BE
:0700430002104375ED3022AD
:07004B0002104B75ED2922A4
:0700530002105375ED32228B
:07005B0002105B75ED31227C
:0700630002106375ED02229B
:07006B0002106B75ED042289
:0700730002107375ED062277
:03007B0002107BF5
:03008300021083E5
:03008B0002108BD5
:03009300021093C5
:03009B0002109BB5
:0300A3000210A3A5
:0300AB000210AB95
:0300B3000210B385
:0300BB000210BB75
:0300C3000210C365
:0300CB000210CB55
:0300D3000210D345
:0300DB000210DB35
:0300E3000210E325
:0300EB000210EB15
:0300F3000210F305
:0300FB000210FBF5
:03010300021103E3
:03010B0002110BD3
:03011300021113C3
:03011B0002111BB3
:03012300021123A3
:03012B0002112B93
:0301330002113383
:03013B0002113B73
:0301430002114363
:03014B0002114B53
:0301530002115343
:03015B0002115B33
:0301630002116323
:03016B0002116B13
:0301730002117303
:03017B0002117BF3
:03018300021183E3
:03018B0002118BD3
:03019300021193C3
:03019B0002119BB3
:0301A3000211A3A3
:0301AB000211AB93
:0301B3000211B383
:0301BB000211BB73
:0301C3000211C363
:0301CB000211CB53
:0301D3000211D343
:0301DB000211DB33
:0301E3000211E323
:0301EB000211EB13
:0301F3000211F303
:0301FB000211FBF3
:03020300021203E1
:03020B0002120BD1
:03021300021213C1
:10021B0002121B7F217F707F10800A7E2B307A1B8E
:10022B00300B540B34691FFFFD7D011B04790FFF4D
:0B023B00FD4D1178E67F1722021243F0
:10024B0002124BCA3B7EB30022605C7E3700207AE1
:10025B0037001C7E1404007E040001120B4970034E
:10026B0002048F7E1405027E0400017E340100E43B
:10027B00120BD46D33801C7D232E2404007A518203
:10028B007A4183E07D232E2405027A51827A4183C1
:10029B00F00B34BE37001C40DE120C47E47AB3007F
:1002AB002202054202048F900400E00A3B7A3700D9
:1002BB0012900410E0B47D1A900408E0B40D028093
:1002CB0003020542900409E0B44202800302054296
:1002DB00802C900414E0B47D1090040CE0B40D0954
:1002EB0090040DE0B442028015900428E0B47D190F
:1002FB00900420E0B40D12900421E0B4420B120CD8
:10030B0004E4900414F00205427E7700124D7778D6
:10031B001A900401E07014900402E0700E90040334
:10032B00E070087E3400657A370008BE74000178EF
:10033B00487E3400027A37001C7E1404007E0400D1
:10034B0001120B49700302048F7E1F0018120C1947
:10035B0040030204597E1F0018CA1B7E3700206D14
:10036B00227E1405027E0400011208AB1BFE500313
:10037B0002045F02045902045FBE7400FF783B7EE7
:10038B003400047A37001C7E1404007E0400011232
:10039B000B49700302048F6D337A37000890040207
:1003AB00E07C4B6C55900403E00A3B4D326D222EE2
:1003BB002400FF7A1F001802045FBE7400FE784011
:1003CB007E3400047A37001C7E1404007E04000186
:1003DB00120B49700302048F900402E0B401067EF5
:1003EB003401008006900403E00A3B7A3700207446
:1003FB00017AB300227E3401007A37001002053FE8
:10040B00BE7400FD78227E3400027A37001C7E1405
:10041B0004007E040001120B4970028067120B98D6
:10042B0074C1120AEB02053FBE740002782C7E34B5
:10043B0000027A37001C7E1404007E040001120BAC
:10044B00497002803F7E1F0018120C194006120CD7
:10045B0052020542120C47020542BE740004780694
:10046B0074017AB30014BE740003680302052D7E79
:10047B003400027A37001C7E1404007E0400011243
:10048B000B497006120C5D0205427E37000D0B34D2
:10049B007A37000D900401E00A6B4D6678047E6498
:1004AB0001007E3400807A370010120B987D362EB7
:1004BB003400031209A97D737D137E0400017E3481
:1004CB000002E4120BD4CA697D177E0400017E1F63
:1004DB000018120C2B1BFD7D177E0400017D3612BC
:1004EB0009497EB3001E7D372D367A71827A61837E
:1004FB00F07EB3001F7D372D360B347A71827A6113
:10050B0083F074307D372D360B357A71827A6183A7
:10051B00F07D362E3400037D177E040001120A4F46
:10052B008012120B9874C1120AEB7E3700080B3441
:10053B007A370008120BB7DA3B22CA794391025380
:10054B0092FD7E34FE417E24007E7E1BB054FD7AEC
:10055B001BB07E1801F4120A8B6D77A291B3500A6F
:10056B007E37000A0B347A37000A7E18000A120A0B
:10057B008B0B74BE7401F448E27E37000ABE340163
:10058B00C228117E34FE997E24007E7E1BB030E2A1
:10059B0003120ABB5391FD5392FD7E34FE417E2420
:1005AB00007E7E1BB054FD7A1BB07E1801F4120A3C
:1005BB008B6D77A291B3500A7E37000A0B347A37D2
:1005CB00000A7E18000A120A8B0B74BE7401F448E1
:1005DB00E27E37000A4D3368546D337A37000A4395
:1005EB0091025392FD7E34FE417E24007E7E1BB031
:1005FB0054FD7A1BB07E1801F4120A8B6D77A29111
:10060B00B3500A7E37000A0B347A37000A7E180083
:10061B000A120A8B0B74BE7401F448E27E37000A8F
:10062B004D336809BE3400002803120ABBDA792265
:10063B007E1400007E0400017E340400120B71C294
:10064B00AF75EA0075E90075BA8043DC8053DC9F17
:10065B0043DC4000000000007E34FE007E24007E60
:10066B007E1BB044807A1BB07E1BB044407A1BB01B
:10067B0074017E34FE057A1BB074807E34FE077ADB
:10068B001BB07E34FE077E24007E7E1BB030E0F272
:10069B00539D3F439D80D2AFE47E34FEF07E240019
:1006AB007E7A1BB074277E34FEF17A1BB074FF7E0A
:1006BB0034FEF27A1BB07E34FEF37A1BB07E34FE2E
:1006CB00EE7A1BB07E34FEEF7A1BB07E34FEE07EFA
:1006DB001BB044017A1BB05391FD5392FD7E74FE07
:1006EB00417E64007E7E3BB054FD7A3BB075F528AD
:1006FB001205454391025392FD7E3BB054FD7A3B6C
:10070B00B0120A021207F17E370008BE34006428CB
:10071B00F3120ABB80EECA79E47AB3001774017E38
:10072B0034FEE77E24007E7A1BB0802C7E14FEEE16
:10073B007E04007E7E0B307C037E54FEEF7E4400F5
:10074B007E7E2B307C20BE144E20280C7E14006540
:10075B007A170008C30207EEA291B340CF74017A57
:10076B001BB080297E34FEEE7E24007E7E1B707CC7
:10077B00477E14FEEF7E04007E7E0B707C64BE34DD
:10078B00010428097EB3000F6003C380562091D467
:10079B007E18001A120A8B309103C380466D777E48
:1007AB00180034120A8BA291E4337C7B7CBF60056A
:1007BB003E701478FB4E7300177A7300170B74BEE0
:1007CB0074000848DA7E180034120A8BA291B350D9
:1007DB0003C3800F74017AB3000F7E7300177A7313
:1007EB00000CD3DA7922CA3B6D337A37000DE47AE9
:1007FB00B3000F7E1404007E0400017E340102124C
:10080B000BD4120BB79F33120721400302089F7EB4
:10081B00B3002260297E3700200B35BE37000D68F0
:10082B00737EB300177D372E3404007A71827A61A0
:10083B0083F07E37000D0B347A37000D804B7E34FE
:10084B00FEEE7E24007E7E1B707C477E14FEEF7EC8
:10085B0004007E7E0B707C64BE3400FA28086D3376
:10086B007A37000D802E7EB300177D372E340400AF
:10087B007A71827A6183F0BE380101780C7E370081
:10088B00082E3400147A3700080B3CBE3801025096
:10089B00030208127EB3000F600312024EDA3B22F2
:1008AB007F717F60A9D7C7693FFFFD692FFFFB7D74
:1008BB00135E1401FF7820A9C4C775C5037CB5F579
:1008CB00F67CB6F5C37CB7F5C475C65A75C6A500DC
:1008DB00000000A924C7FC75C5029F118034A9C470
:1008EB00C7691FFFFD690FFFFB2F017CB1F5F67C7C
:1008FB00B2F5C37CB3F5C47D132D1D7D0C7E0BB0FF
:10090B00F5C275C65A75C6A500000000A924C7FC20
:10091B000B1CBF1740C875C70075C50075C60075A1
:10092B00C3FF75C4FF7D3FCA39693FFFFB692FFFCA
:10093B00F97F06120B1A1BFD7002D322C3227D43D3
:10094B007F706D337A370023803F7F072D137E0B2B
:10095B00A06C557E1700237DD15ED400017CBA5468
:10096B00010A0B6D0D68127D011E047A0700236EC0
:10097B0004A0017A07002380061E147A1700231E99
:10098B00A00B50A5BD08CC0B34BD3440BD7E73000D
:10099B00247A73001E7E7300237A73001F227D530B
:1009AB007E3401257E240000691100020B1A00BE63
:1009BB0008000078039F112269400004BD455004D4
:1009CB007F1080E49D45BE44001850126950000210
:1009DB000B0A40795100021B1A407F1080149E4471
:1009EB000006794000047F102D342E340006795117
:1009FB0000042E340006227E340030CA397E34F8CF
:100A0B00007E2400FF7E1404007E040001120C2BD8
:100A1B001BFD900402E0BEB00C6828BEB0FF68233B
:100A2B006021740C900402F07E34F8007E2400FFE9
:100A3B00CA1B7E1800307E1404007E0400011208CD
:100A4B00AB1BFE22CA3BCA397F300BFD6D33801BBB
:100A5B00693FFFFF2D377D267E1BB0120AEB7E18F8
:100A6B000034120A8B693FFFFF0B34793FFFFF699C
:100A7B002FFFFD693FFFFFBD3248D51BFEDA3B223E
:100A8B007F7174017E34FEE77E24007E7A1BB07E7C
:100A9B0034FEEE7E24007E7E1B707C477E14FEEFC0
:100AAB007E04007E7E0B707C646D22BF1740E022BB
:100ABB007E34F8007E2400FF7E1BB07E341000BE17
:100ACB00B001680280087E1BB0BEB00268076D33B0
:100ADB007A370008227E3410007E2400FF991822FA
:100AEB00CA797CFBC2917E180034120A8B6CEE7CA7
:100AFB00BF30E004D2918002C2910BE01EF07E1851
:100B0B000034120A8BBEE00840E5D291DA79227FDD
:100B1B00217F70693FFFFD4D337802E4221B34794E
:100B2B003FFFFD7E2B607E7B70BC76680ABC76280F
:100B3B000374012274FF220BF40B5480D622CA7962
:100B4B007D537F102D357E1BE029F100017D351281
:100B5B000949BEE3001E780ABEF3001F7804740136
:100B6B008001E4DA79227DF37F207E3401257E2417
:100B7B000000791100021B1A009F11793200021B31
:100B8B002A207D3F9E3400067932000422D29153F5
:100B9B0091FD4392027E34FE417E24007E7E1BB08B
:100BAB0054FD7A1BB07E180034020A8B5391FD530F
:100BBB0092FD7E34FE417E24007E7E1BB054FD7A76
:100BCB001BB06D337A37001522CAF87DF37CFB7F9F
:100BDB00207F1080071BF47A2BF00B544DFF78F518
:100BEB00DAF8227584017E44041FE47A49B01B4471
:100BFB0078F97EF8002402063B120B987E140FE85E
:100C0B007E0400FF7E340009120A4F020BB77F21CE
:100C1B007E3410007E2400FFBF214002D322C3226A
:100C2B007F21693FFFFDCA397F1212021E1BFD2275
:100C3B0075ED21A5EF540FA2E0640822120B9874F6
:100C4B0030120AEB020BB7120B9874C1120AEB02AB
:100C5B000BB7120B9874C2120AEB020BB7A5EC641C
:100C6B0080A5FC22A5EC547FA5FC2275ED22A5EFF7
:100C7B002275ED25A5EF227C7475ED27227D32754B
:100C8B00ED282275ED33A5EF22A5FF75ED34227506
:100C9B00ED35A5EF22A5FF75ED36226D0075ED0242
:070CAB00226D0075ED04222B
:100FE0005925E3DA4EB863D9343731113506060195
:010FF00030D0
:00000001FF
